{
  "contractName": "rank_contract",
  "abi": [
    {
      "constant": true,
      "inputs": [],
      "name": "rank",
      "outputs": [
        {
          "name": "",
          "type": "uint256"
        }
      ],
      "payable": false,
      "stateMutability": "view",
      "type": "function"
    },
    {
      "inputs": [],
      "payable": false,
      "stateMutability": "nonpayable",
      "type": "constructor"
    }
  ],
  "bytecode": "0x60606040523415600e57600080fd5b60008081905550609c806100236000396000f300606060405260043610603f576000357c0100000000000000000000000000000000000000000000000000000000900463ffffffff168063934209ce146044575b600080fd5b3415604e57600080fd5b6054606a565b6040518082815260200191505060405180910390f35b600054815600a165627a7a72305820008d158212e226005a702383bf8b8f839572bc52b1d8e646615f3842c62821920029",
  "source": "pragma solidity ^0.4.17;\n\ncontract rank_contract {\n  uint public rank;\n  function rank_contract() {\n    rank = 0;\n  }\n}\n",
  "sourcePath": "/home/vishal/Github/BLoCKchain/contract1/contracts/rank_contract.sol",
  "compiler": {
    "name": "solc",
    "version": "0.4.18+commit.9cf6e910.Emscripten.clang"
  },
  "schemaVersion": "1.0.1",
  "updatedAt": "2017-11-16T17:22:14.952Z"
}