{
  "contractName": "OwnerClaims",
  "abi": [
    {
      "constant": false,
      "inputs": [
        {
          "name": "value",
          "type": "string"
        }
      ],
      "name": "setDefaultClaim",
      "outputs": [],
      "payable": false,
      "stateMutability": "nonpayable",
      "type": "function"
    },
    {
      "constant": false,
      "inputs": [
        {
          "name": "key",
          "type": "string"
        },
        {
          "name": "value",
          "type": "string"
        }
      ],
      "name": "setClaim",
      "outputs": [],
      "payable": false,
      "stateMutability": "nonpayable",
      "type": "function"
    },
    {
      "constant": true,
      "inputs": [
        {
          "name": "owner",
          "type": "address"
        },
        {
          "name": "key",
          "type": "string"
        }
      ],
      "name": "getClaim",
      "outputs": [
        {
          "name": "",
          "type": "string"
        }
      ],
      "payable": false,
      "stateMutability": "view",
      "type": "function"
    },
    {
      "constant": true,
      "inputs": [],
      "name": "defaultKey",
      "outputs": [
        {
          "name": "",
          "type": "string"
        }
      ],
      "payable": false,
      "stateMutability": "view",
      "type": "function"
    },
    {
      "constant": true,
      "inputs": [
        {
          "name": "owner",
          "type": "address"
        }
      ],
      "name": "getDefaultClaim",
      "outputs": [
        {
          "name": "",
          "type": "string"
        }
      ],
      "payable": false,
      "stateMutability": "view",
      "type": "function"
    }
  ],
  "bytecode": "0x6060604052341561000f57600080fd5b6107628061001e6000396000f30060606040526004361061006d576000357c0100000000000000000000000000000000000000000000000000000000900463ffffffff1680631eba7c7a146100725780632df3f82a146100cf57806358924b811461016f57806386a3cd2714610264578063cd56f019146102f2575b600080fd5b341561007d57600080fd5b6100cd600480803590602001908201803590602001908080601f016020809104026020016040519081016040528093929190818152602001838380828437820191505050505050919050506103a4565b005b34156100da57600080fd5b61016d600480803590602001908201803590602001908080601f0160208091040260200160405190810160405280939291908181526020018383808284378201915050505050509190803590602001908201803590602001908080601f016020809104026020016040519081016040528093929190818152602001838380828437820191505050505050919050506103e6565b005b341561017a57600080fd5b6101e9600480803573ffffffffffffffffffffffffffffffffffffffff1690602001909190803590602001908201803590602001908080601f016020809104026020016040519081016040528093929190818152602001838380828437820191505050505050919050506104a6565b6040518080602001828103825283818151815260200191508051906020019080838360005b8381101561022957808201518184015260208101905061020e565b50505050905090810190601f1680156102565780820380516001836020036101000a031916815260200191505b509250505060405180910390f35b341561026f57600080fd5b6102776105f6565b6040518080602001828103825283818151815260200191508051906020019080838360005b838110156102b757808201518184015260208101905061029c565b50505050905090810190601f1680156102e45780820380516001836020036101000a031916815260200191505b509250505060405180910390f35b34156102fd57600080fd5b610329600480803573ffffffffffffffffffffffffffffffffffffffff1690602001909190505061062f565b6040518080602001828103825283818151815260200191508051906020019080838360005b8381101561036957808201518184015260208101905061034e565b50505050905090810190601f1680156103965780820380516001836020036101000a031916815260200191505b509250505060405180910390f35b6103e36040805190810160405280600781526020017f64656661756c7400000000000000000000000000000000000000000000000000815250826103e6565b50565b806000803373ffffffffffffffffffffffffffffffffffffffff1673ffffffffffffffffffffffffffffffffffffffff168152602001908152602001600020836040518082805190602001908083835b60208310151561045b5780518252602082019150602081019050602083039250610436565b6001836020036101000a038019825116818451168082178552505050505050905001915050908152602001604051809103902090805190602001906104a192919061067d565b505050565b6104ae6106fd565b6000808473ffffffffffffffffffffffffffffffffffffffff1673ffffffffffffffffffffffffffffffffffffffff168152602001908152602001600020826040518082805190602001908083835b60208310151561052257805182526020820191506020810190506020830392506104fd565b6001836020036101000a03801982511681845116808217855250505050505090500191505090815260200160405180910390208054600181600116156101000203166002900480601f0160208091040260200160405190810160405280929190818152602001828054600181600116156101000203166002900480156105e95780601f106105be576101008083540402835291602001916105e9565b820191906000526020600020905b8154815290600101906020018083116105cc57829003601f168201915b5050505050905092915050565b6040805190810160405280600781526020017f64656661756c740000000000000000000000000000000000000000000000000081525081565b6106376106fd565b610676826040805190810160405280600781526020017f64656661756c74000000000000000000000000000000000000000000000000008152506104a6565b9050919050565b828054600181600116156101000203166002900490600052602060002090601f016020900481019282601f106106be57805160ff19168380011785556106ec565b828001600101855582156106ec579182015b828111156106eb5782518255916020019190600101906106d0565b5b5090506106f99190610711565b5090565b602060405190810160405280600081525090565b61073391905b8082111561072f576000816000905550600101610717565b5090565b905600a165627a7a7230582037bc6953e29951210e6d93f6c18a727f53c33aab7f07a4c4f6caf6de813c09e70029",
  "source": "pragma solidity ^0.4.4;\n\ncontract OwnerClaims {\n\n    string constant public defaultKey = \"default\";\n\n    mapping(address => mapping(string => string)) private owners;\n\n    function setClaim(string key, string value) {\n        owners[msg.sender][key] = value;\n    }\n\n    function getClaim(address owner, string key) constant returns (string) {\n        return owners[owner][key];\n    }\n\n    function setDefaultClaim(string value) {\n        setClaim(defaultKey, value);\n    }\n\n    function getDefaultClaim(address owner) constant returns (string) {\n        return getClaim(owner, defaultKey);\n    }\n\n}\n",
  "sourcePath": "/home/vishal/Github/BLoCKchain/solidity-experiments/contracts/owner_claim.sol",
  "compiler": {
    "name": "solc",
    "version": "0.4.18+commit.9cf6e910.Emscripten.clang"
  },
  "schemaVersion": "1.0.1",
  "updatedAt": "2017-11-22T17:09:19.636Z"
}